:040000008EEF09F086
:101000000000010E296E2350D8B409EF08F00BEF51
:1010100008F01BEF08F02350D96EDA6ADF30E832AF
:10102000E832070B246E070E246419EF08F01BEF5B
:1010300008F076EF08F0000E296E76EF08F02350E6
:10104000D96EDA6ADF30E832E832070B246E010E1F
:10105000256E242A2EEF08F0D8902536242E2CEF6A
:1010600008F02550FF0A266E2350D96EDA6ADF5049
:10107000070B020DF350150FD96EDA6ADECF27F099
:10108000DDCF28F027C0D9FF28C0DAFF2650DF16B1
:101090008CEF08F02350D96EDA6ADF30E832E8329C
:1010A000070B246E010E256E242A59EF08F0D89004
:1010B0002536242E57EF08F02350D96EDA6ADF5018
:1010C000070B020DF350150FD96EDA6ADECF26F04A
:1010D000DDCF27F026C0D9FF27C0DAFF2550DF1269
:1010E0008CEF08F0000E296E8CEF08F02350D96EBB
:1010F000DA6ADFBC7EEF08F081EF08F0010E82EFC4
:1011000008F0000E000AD8B41FEF08F0010AD8B4A6
:101110004AEF08F072EF08F029501200010E2A6E13
:101120002350D8B496EF08F098EF08F0A8EF08F035
:101130002350D96EDA6ADF30E832E832070B256EC9
:10114000070E2564A6EF08F0A8EF08F003EF09F0FA
:10115000000E2A6E03EF09F02350D96EDA6ADF30F1
:10116000E832E832070B256E010E266E252ABBEF0A
:1011700008F0D8902636252EB9EF08F02650FF0A41
:10118000276E2350D96EDA6ADF50070B020DF35039
:101190000B0FD96EDA6ADECF28F0DDCF29F028C038
:1011A000D9FF29C0DAFF2750DF1618EF09F02350C6
:1011B000D96EDA6ADF30E832E832070B256E010EAD
:1011C000266E252AE6EF08F0D8902636252EE4EF85
:1011D00008F02350D96EDA6ADF50070B020DF35086
:1011E0000B0FD96EDA6ADECF27F0DDCF28F027C0EB
:1011F000D9FF28C0DAFF2650DF1218EF09F0000EE1
:101200002A6E18EF09F02450256E266A2650000A2F
:10121000D8B40DEF09F0FFEF08F02550000AD8B45C
:10122000ACEF08F0010AD8B4D7EF08F0FFEF08F0F0
:101230002A501200060E2C6E130E2B6EAE0EE82EE8
:10124000FED72B2EFCD72C2EFAD7220E236E01ECC4
:1012500008F0210E236E01EC08F0200E236E01EC45
:1012600008F0220E236E010E246E8EEC08F0210E83
:10127000236E000E246E8EEC08F0200E236E000EFE
:10128000246E8EEC08F01F0E2C6E710E2B6E1E0E4F
:10129000E82EFED72B2EFCD72C2EFAD700D0220E0C
:1012A000236E000E246E8EEC08F0210E236E010ECC
:1012B000246E8EEC08F0200E236E000E246E8EEC51
:1012C00008F0060E2C6E130E2B6EAE0EE82EFED717
:1012D0002B2EFCD72C2EFAD7220E236E000E246E56
:1012E0008EEC08F0210E236E000E246E8EEC08F0BA
:1012F000200E236E010E246E8EEC08F01F0E2C6E55
:10130000710E2B6E1E0EE82EFED72B2EFCD72C2E28
:10131000FAD700D01AEF09F000EF00F0500EF66E89
:10132000130EF76E000EF86E00EE01F010EE22F0D4
:101330000900F5CFEEFFE550E150FAE1316A306A7D
:101340002F6A2E6A2D6A000EF86E00011AEF09F05E
:10135000800F810F820F830F840F890F8A0F8B0FED
:101360008C0F8D0F920F930F940F950F960F4312C2
:021370000A026F
:020000040030CA
:0E000000FF02091EFF8181FF0FC00FE00F40BD
:00000001FF
